:100000000C9454000C9400000C9400000C9400001C
:100010000C9400000C9400000C9400000C94000060
:100020000C944D030C9400000C9400000C94000000
:100030000C9400000C9400000C9400000C94000040
:100040000C9400000C9400000C9400000C94000030
:100050000C9400001027E80364000A00010000105F
:100060000001100001000000476F635F526F6C6C6D
:10007000203A00476F635F50697463683A00253324
:10008000640001002D4E414E00494E460000020022
:10009000040066000B00600168000B006B01730038
:1000A00001009E0182000000F894EE27ECBBF1E015
:1000B000FBBFEBBFE5BF8DE0A2E0BB27ED938A95C8
:1000C000E9F780E094E0A0E6ED930197E9F7EEE828
:1000D000F0E085919591009761F0A591B59105901B
:1000E0001590BF01F00105900D920197E1F7FB011A
:1000F000F0CFEFE5EDBFE4E0EEBFC0E6D1E00C9459
:10010000A901A6E90E945F07A9E10E942A03A7E0CE
:100110000E946507ABE60E942A03A1E00E946507E2
:10012000AAE10E942A03A0E00E946507ABE10E94B9
:100130002A03A8E10E946507A8E30E942A03A1E020
:100140000E942A030E940903A4E6B0E00E940E0B5D
:100150000895A0ED0E940F03ABE30E942A03A1EDD6
:100160000E94E7020895F5DF0E946B07FF93EF936B
:100170000E944003F0E0AF91BF91EA2BFB2BA2E875
:10018000B1E00E947007FF93EF930E944003F0E0FC
:10019000AF91BF91EA2BFB2BA6E8B1E00E9470075C
:1001A000FF93EF930E944003F0E0AF91BF91EA2BE1
:1001B000FB2BAAE8B1E00E947007FF93EF930E9427
:1001C0004003F0E0AF91BF91EA2BFB2BAAE9B1E02D
:1001D0000E947007FF93EF930E944003F0E0AF91FD
:1001E000BF91EA2BFB2BAEE8B1E00E947007FF93B2
:1001F000EF930E944003F0E0AF91BF91EA2BFB2BFD
:10020000A2E9B1E00E947007FF93EF930E944603BA
:10021000F0E0AF91BF91EA2BFB2BA6E9B1E00E9481
:1002200077070E94D5080E94090308950E947C0761
:100230000E9484077F936F93FF93EF930E948C0734
:10024000AF91BF918F919F910E9491070E94970754
:100250000E949C077CC00E947C07A0E0B0E080E880
:100260009FEB0E94250A7F936F93FF93EF930E9469
:10027000B3070E9484077F936F93FF93EF930E94CD
:100280008C07AF91BF918F919F910E949107AF9181
:10029000BF918F919F910E949C0759C00E94F208C4
:1002A00028970E94B3070E94B8070E94BD07E093F9
:1002B0007601F093770160937801709379010E9441
:1002C000660366277727E0937A01F0937B016093BA
:1002D0007C0170937D01A0917601B09177018091AE
:1002E0007801909179010E94BD070E94B5080E9493
:1002F0009A09AEE7B1E00E9463090E94D508AC8577
:10030000BD858E859F85E3E3F3E363E871E40E9496
:10031000730A0E94C607E0917E01F0917F0160910F
:100320008001709181010E94C9070E949A090E9470
:10033000CC07E0E0F0E06AE774E40E94730A0E94F0
:10034000D1070E94D6090E94B8070E94D60760967E
:100350000895A297E0E0E0937601E0937701E093BF
:100360007801E0937901E0937A01E0937B01E093D7
:100370007C01E0937D01E0937E01E0937F01E093B7
:100380008001E09381010E94C702BBDE8FD0E0E0D4
:10039000EA93EA93A0E6B1E0DCD0E1E0EA93E0E0A2
:1003A000EA93ABE6B1E0D5D00E946F037894DBDE30
:1003B0000E94DB073BDFEC8BFD8B6E8B7F8B0E94FB
:1003C000DB0749DFE88BF98B6A8B7B8BE09192012D
:1003D000F091930160919401709195010E94ED0854
:1003E0000E9497075BDFEC87FD876E877F87E09130
:1003F0008E01F0918F0160919001709191010E94A6
:10040000ED080E94D1074ADFE887F9876A877B8772
:10041000EC85FD856E857F850E94F8077F936F933D
:10042000FF93EF93EC89FD896E897F890E94FF0716
:10043000AF91BF918F919F910E94D6090E94B807FA
:100440000E94B3070E94F8077F936F93FF93EF9387
:10045000E889F9896A897B890E94FF07AF91BF917A
:100460008F919F910E94D6090E94C607FE017D963A
:100470000E9406080E94D6070E940D08FE01789689
:100480000E9406080E94B3070E940D08E0E0EA936C
:10049000EAE0EA93DE015F965CD0E1E0EA93EAE00D
:1004A000EA93DE015A9655D082CFFFCFEFEFE7BB3C
:1004B000A4E1B0E00E940E0BA3E30BD0A2E309D0AD
:1004C000A8E207D0ACE005D0A6E003D0A1E001D0BF
:1004D00008950E941808C0980E942208C19B02C07B
:1004E000C19801C0C19A0E942708C19B02C0C1984F
:1004F00001C0C19A11C00E941808C09A0E94220827
:10050000C19B02C0C19801C0C19A0E942708C19B2B
:1005100002C0C19801C0C19AA2E0B0E00E940E0BD7
:10052000199108950E94A1089D0100E010E0F801D2
:10053000E20FF31FE081E03041F0F801E20FF31F1A
:10054000A081D9DF0F5F1F4FF2CF0E94A8080C9443
:100550009A050E94A1088D013C812D81203011F463
:10056000303108F004C0E32FEF70E06808C021309C
:1005700011F4303108F005C0E32FEF70E06CAE2FBE
:10058000A8DFD801CFDF0E94A80826960895E0E0F2
:10059000F0E060E870E40E94ED08E1B9FF2766270B
:1005A00077270E949C09DF01CB010E94CD04A0E0C7
:1005B000B0E080E090E40E94250AA0E0B0E080E88E
:1005C00092E40E94730A0E946309E0B908951A93A5
:1005D0000A930A2FE4EAE6BFE6B7E078E9F3E1B16F
:1005E000E87F1E2F103111F0E0E076C003B9E4E897
:1005F000E6BFE6B7E078E9F3E1B1E87F1E2F1034FB
:1006000011F4E1E069C0103211F4E2E065C0E3E00A
:1006100063C0E4E9E6BFE6B7E4FDFDCF08951A93B1
:100620000A930A2FE4EAE6BFE6B7E078E9F3E1B11E
:10063000E87F1E2F1830B1F703B9E4E8E6BFE6B74C
:10064000E078E9F3E1B1E87F1E2F183111F0E1DF26
:10065000E9CF42C01A930A930A2F03B9E4E8E6BF30
:10066000E6B7E078E9F3E1B1E87F1E2F183211F424
:10067000E0E032C0103311F4E1E02EC0E2E02CC023
:10068000E4ECE6BFE6B7E078E9F305C0E4E8E6BFEE
:10069000E6B7E078E9F3E3B10895EA93FA93EFB7A8
:1006A000EA93F20131962F01E0EEEDBDEFEBECBDE8
:1006B000E991EFBFF991E9911895E1E0EEBDE0EE27
:1006C000EDBDEFEBECBDE4E0E9BF08951A930A93AA
:1006D000F89482017894F801099119910895EDDF59
:1006E000789408950E94F2087B816A81F981E881FB
:1006F00077FB770F67FD7160972F9E5781F078F039
:10070000983190F4AA27BB27882708948795B79536
:10071000A7959A95D1F7EA23FB23682305C0E894AF
:100720007727EE27FF2766276F77769508F46068AE
:1007300077F9A991B99189919991EA17FB0768070F
:10074000790797FB08950E94F2080E94C9070E944A
:1007500072030E94C60719F40E943408EBC1E6F741
:100760000E9437080E94CF09E5C10E94F208249731
:100770001A930A930E943D080E9408092CF0EFEF9B
:10078000FFEF6FE77FEF6DC00E9442080E94ED0807
:10079000ADB7BEB711971F930F930E9413090F9126
:1007A0001F910E9447080E943D08E3EFF4E065E3D3
:1007B0007FE30E94B70A40F40E944C080E94D609C9
:1007C0000E944708015010400E944E080E94CF0925
:1007D0007F936F93FF93EF930E944E080E94D60978
:1007E000AF91BF918F919F910E94730A0E94470819
:1007F0000E944C080E945408A6E2B2E485E69FE3FA
:100800000E94CC07EEE4F1E164E570E40E945B082D
:100810000E943D080E94250A7F936F93FF93EF93F8
:100820000E946008ADE4B1E184ED9FE30E94CF092E
:10083000AF91BF918F919F910E94730A7F936F93A5
:10084000FF93EF93F8010E947707A8E1B2E781E3F5
:100850009FE30E94250AAF91BF918F919F910E94C3
:10086000D609198108812A9608950E94F2082897CE
:100870001A930A930E946508E0E5FCEA6EEA72ECBE
:100880000E94B70A18F40E946A0883C0EA85FB85B3
:100890006C857D850E94040929F4E0E0F0E060E8C1
:1008A0007FE377C00E946508E8E1F2E761EB72E45C
:1008B0000E94B70A09F008F405C0EFEFFFEF6FE7F9
:1008C0007FE767C00E946508EBE3FAEA68EB7FE325
:1008D0000E94250AEA87FB876C877D870E9465084E
:1008E00032DF0E9465098F010E9465080E94770728
:1008F0000E945B08DF01CB01E0E0F0E060E07FE315
:100900000E945B080E9447080E944C080E945408FD
:10091000ADE6BCE48CE69DE30E94250AA6EAB3EEB0
:1009200086EE90E40E94D6090E943D080E94250AA6
:100930000E9447080E946008A8E2BDE886EA91E4A8
:100940000E94D609EA83FB836C837D830E94420860
:10095000AA81BB818C819D810E94D609A3EFB4E05E
:1009600085EB9FE30E94250A7F936F93FF93EF939C
:100970000E943D080E9460080E94CF09AF91BF917C
:100980008F919F910E94730A0E94ED08D8010E94E6
:100990002409198108812E9608950E94F20824974F
:1009A0000E94B3070E94040919F40E946A0841C01A
:1009B0000E9497070E94080984F40E94D6070E94AB
:1009C000040929F4E0E0F0E060E87FE332C00E942F
:1009D00097070E946F0849DF2CC00E94D607DE01EE
:1009E0000E9465090E94D5080E9434080E949C0953
:1009F000DF01CB010E94D6070E940E0919F00E9468
:100A00006A0817C00E94B3070E943009DF01CB01BA
:100A10000E946F082ADFE887F9876A877B87E88169
:100A2000E17019F40E94B30704C00E94B3070E944A
:100A300030092C9608950E94F20824970E94D60748
:100A40000E94D1070E94250A0E94C6070E9434080E
:100A5000A5E6B0ED8BEC90E40E9473080E94D107EC
:100A60000E94250A7F936F93FF93EF930E943408AF
:100A7000A0E0BDE689E291E40E94D6090E94C90780
:100A80000E947308AF91BF918F919F910E94730A4A
:100A9000289608950E94F2080E94C907EDECF3E140
:100AA00064ED7EE30E94B70A20F40E94C907C3DF09
:100AB00041C00E94C907EAE7F2E86AE170E40E94D7
:100AC000B70A09F008F40BC00E9437080E947C089E
:100AD000ABEDBFE089EC9FE30E945B082BC00E9456
:100AE00037080E94CF097F936F93FF93EF930E9483
:100AF00037080E94D609AF91BF918F919F910E94B4
:100B00007C08ABEDBFE089E49FE30E94D60912C0E8
:100B10000E94F208AB81AA2322F00E94C907BADF23
:100B200009C00E9434080E943009DF01CB01B2DF06
:100B30000E943009249608950E949F089D015E81BD
:100B400012960E94D108309731F1D90114960E9473
:100B5000D1088F01309759F00230E0E01E0780F095
:100B6000F80131978F01D9011496ED93FC93D901C7
:100B70001296ED91FD913196FE93EE93319750834D
:100B8000D9010E94D108FF232AF0ED91FD91319601
:100B9000FE93EE9305C0D901EFEFFFEFED93FC93C9
:100BA0000E94A60827960895BA93AA9326970E94B2
:100BB0009F0810E0AC85BD85E0E0F0E0ED93FC938C
:100BC000EA89FB893196EA8BFB8B3197E4912E2FD2
:100BD000E03009F41DC1E12FE03039F4253211F481
:100BE00011E002C00E94820812C1E130A9F425324E
:100BF00019F40E9482080AC112E040E000E02D32A0
:100C000011F401E004C12B3211F44BE200C1203297
:100C100011F440E2FCC002C0E23039F450E013E0CD
:100C2000203311F40068F3C003C0E33009F0EFC0D3
:100C3000203310F02A3308F007C0AAE05A9F502D45
:100C4000E22FE0535E0FE3C0E22FE33649F40E9447
:100C50008908E889F989A481AA930E948F08D6C0DF
:100C6000E33741F40E9489080E9495080E944607D4
:100C70001E2F0AC0E03761F40E9489080E9495087F
:100C80000E9452071E2F086002600F7730E03CC0C0
:100C9000E43611F0E93611F4046002C0E53731F4AE
:100CA000E4E5F0E0EE83FF8315E00CC0E83511F4D5
:100CB000086003C0E83709F0A9C0EEE5F0E0EE8374
:100CC000FF8314E002FF17C00E948908A889B98930
:100CD0001496ED91FD91EA87FB87AB85AA232AF450
:100CE0000E94BA08EA87FB874DE2403011F01F5F8F
:100CF00001C00B7F09C00E948908A889B989149690
:100D00000E94D108EA87FB8700FD11C0151778F40F
:100D100007FF08C002FF04C00B7F242F115001C041
:100D200020E301C020E20E9482085150EFCF312F12
:100D300001FF17C03030A1F003FF06C0EE81FF8134
:100D40002591EE83FF8305C0AE81BF812D91AE83D7
:100D5000BF830E948208503009F051503150EACFD1
:100D60004BC020E3EE81FF810E94DA08E887F98713
:100D7000EE81FF813296EE83FF83E885F985AA85AF
:100D8000BB85AE17BF0750F02F5FA885B985EA85F0
:100D9000FB85EA1BFB0BEA87FB87EFCF2A3328F0A2
:100DA00003FF02C0295F01C0295D04FD1AC0213381
:100DB00020F4A885B985119709F409C0531710F0DC
:100DC00000FF01C013C020E207FF0BC020E3006159
:100DD00002FF07C00B7F4A930E948F08503009F032
:100DE00051500E948208503009F051503150A8856E
:100DF000B985129708F0B5CF00FF08C0503031F028
:100E00005150E0E2EA930E948F08F8CF10E0D8CE6C
:100E1000AC85BD85ED91FD910E94A608649608956C
:100E2000FF92F82E26970E949F08FE010E94AD08AF
:100E300046855785042E052A19F4EFEFFFEF21C0F0
:100E4000DE0118960E94B1088D0148875987E0E0BD
:100E5000EA87EB87DE011C960E94B108ED91FD91B7
:100E6000FA93EA931A930A93ECE9F5E0FA93EA937A
:100E7000DE011C9699DE9F01A885B985E0E0EC9320
:100E8000F9010E94A6082C96FF900895BA93AA93A0
:100E9000A991B991EE27FF276D91662311F0319644
:100EA000FBCF0895BA93AA93AA27BB27E991F9919A
:100EB0000590002011F01196FBCFFD010895B0E0E0
:100EC0000E940E0BA0ED0C940F030E942A030E94B7
:100ED0000903A4E6F4CF0E944003FE2FE0E008954A
:100EE0000E94CC080E949C090E94D508F4CF0E9461
:100EF000CC080E949C0908950E94F2082497EC8572
:100F0000FD856E857F8508950E94ED08A0E0B0E024
:100F100080E090E40C94CD04EC81FD816E817F81B2
:100F2000F3CF0E94D609DF01CB010C94D70AA88524
:100F3000B9858A859B8508950E94730ADF01CB01DC
:100F40000E948805A0E0B0E084E393E40E94250AB3
:100F5000DF01CB01EBEDFFE069E470E40E94730A6E
:100F60000E94E8080895E885F9856A857B850895DB
:100F7000EC83FD836E837F830895E0917A01F09185
:100F80007B0160917C0170917D0108950E94E808C9
:100F900008950E94E30808950E94250ADF01CB010D
:100FA0000895AC81BD818E819F810895EC81FD8182
:100FB0006E817F810895E0918201F09183016091BB
:100FC0008401709185010E94ED08E0918601F09105
:100FD000870160918801709189010E94ED08A091BC
:100FE0008A01B0918B0180918C0190918D010895BF
:100FF000AAE9B9E989E99EE30E94250A0895A3E3D5
:10100000B3E383E39FE30E94250A0895FA93EA93EA
:10101000EEE7F0E0FA93EA9308950E9465090E94D2
:10102000CC080E94ED0884E00E94100728960895DD
:101030001A931A2FE8B3EF70AE2FE12FE07FEA2B5F
:10104000E8BB0895C19A83E08A95F1F7089580E995
:1010500091E00197F1F7E8B3EF70AE2FE12FE29541
:10106000E07FEA2BE8BBEECF0E94DE080895FCDFAC
:10107000A0E0B0E080E89FE30895AE81BF8188855D
:1010800099850895EE81FF81688579850895EE83BD
:10109000FF83688779870895F5DFEFCFF3DFA0E05E
:1010A000B0E080E89FE308950E94250AEA83FB836D
:1010B0006C837D8308950E94F7080E94CF090895EC
:1010C000EA81FB816C817D810895AA85BB858C8531
:1010D0009D850895E0E0F0E060E070E008950E94F2
:1010E000B5035FDF59CF0E94250AAEE4BFE88AE46A
:1010F00091E40E94D60908950E94730ADF01CB0192
:101100000C941B052A93AD85BE85EF85F88909955A
:101110000895E889F9893497E88BF98B0895AD85AE
:10112000BE85EF85F88909950895A889B98914962F
:10113000ED91FD91EE83FF83AE81BF8108955A93B7
:101140004A933A932A931A930A9308955D814C81A6
:101150003B812A811981088108950024EF0DF01D3B
:1011600008950024AF0DB01D0895EA1BFB0B680B1A
:10117000790B0895F195E195F0400895F09560950B
:101180007095E195FF4F6F4F7F4F0895FE2FFF0F32
:10119000FF0B6F2F7F2F08956F2F660F660B762F33
:1011A0000895ED91FC9111970895ED93FD936D9342
:1011B0007C9308950590F491E02D0895E881F981DC
:1011C0006A817B810895A881B9818A819B81089574
:1011D000E883F9836A837B8308957A936A93FA9309
:1011E000EA9308959A938A93BA93AA930895182E2E
:1011F000862F612D192E972F712D1B2EBF2FF12DAC
:101200001A2EAE2FE12D089530976040704008955A
:1012100000240A160B06080609060895EA17FB07BC
:10122000680779070895E991F9916991799177FBB8
:10123000660F771F88277E57880B7D938C937EE7F8
:10124000769567956EF00895E991F9916991799194
:1012500077FB660F771F7A0F769567950EF00895E6
:1012600030976040704009F070580895552342F45B
:10127000503811F4E0FF04C03196691F791F6BF0FC
:1012800050E8572711F45F93CFC05F3F31F0660FEE
:10129000000C57956795752F08955F9300200AF00D
:1012A000CEC0C7C050E8192E1522880F991F952768
:1012B000550F879550E8072E0522660F771F752773
:1012C000550F67950895689401C0E8945F93F2DF25
:1012D000703818F07F3F08F4A7C056E1571BAAF4F6
:1012E000519558300EF4593030F0EFEFFFEF6FEFBB
:1012F0007FE777F91AC077275523B9F0EE0FFF1F64
:10130000661F771F5A95D1F710C07727583028F0FD
:10131000EF2FF62F672F5850F9CF552331F07695E0
:101320006795F795E7955A95D1F700200AF426DFDF
:101330005F910895689401C0E894309760407040D0
:10134000B1F0002426F0772312F4009417DF172E53
:101350007EE1112032F07A95EE0FFF1F661F111CFF
:10136000F9CFEF2FF62F612D5F938ADF5F910895FC
:101370004F93AF01FD01DA01AB01BC01CA01402D61
:10138000012C142E4F910895EA0FFB1F681F08953A
:10139000E095F0956095EF5FFF4F6F4F08955F9375
:1013A00081DF903871F150E8152604C05F937ADF31
:1013B000903839F1703821F1572F591B2BF112F465
:1013C000D7DFFACF583118F0AA27BB278827583023
:1013D00028F0AB2FB82F88275850F9CF552329F084
:1013E0008695B795A7955A95D9F7502D512572F046
:1013F000CBDF38F46795F795E795739513F41FC025
:10140000B7DF3EDF5F910895D8F7FBCFEA1BFB0BF8
:10141000680B51F010F40094BBDF662392F3EE0FDB
:10142000FF1F661F7A95CBF7EE27FF27BF015F915D
:101430000895EFEFFFEF6FE77FEF5F910895EFEF14
:10144000FFEF6FE77FE75F9108955F932BDF7038C1
:1014500059F3903849F301240894791F23F424F3B5
:1014600000203AF3ECCF0F921F932F933F934F93AB
:10147000112722279927689FA0018F9F302D410DAA
:10148000591F6B9F300D411D591F8E9F27D0BF9F45
:1014900025D06A9F23D0BE9F1DD0AF9F1BD0AE9F8B
:1014A000110D291F391F491F591FE32FF42F652FD5
:1014B000522F4F913F912F911F910F9066232AF049
:1014C000550FEE1FFF1F661F02C073954BF2CEDE55
:1014D0005F910895100D211D391F02C0200D311D8F
:1014E000491F591F08955F93DDDE703821F41120E4
:1014F0000AF49FCFA4CF903809F496CF0124089422
:10150000970B1BF4D4F30020F3CF792F1F932F9365
:101510003F934F931124112722273327A90190E2EB
:10152000AE17BF078607410730F0AE1BBF0B860B17
:10153000410B089401C08894551F221F331F111CB2
:10154000AA1FBB1F881F441F9A9551F7F901612DEF
:101550004F913F912F911F91662332F0550FEE1F4F
:10156000FF1F661F7A954BF281DE5F9108959923E4
:101570009AF0772342F0971748F029F4AE17BF0787
:10158000860720F031F098948894089598940894F0
:1015900008951894889408957723C2F7971798F3BD
:1015A000A9F7EA17FB07680788F399F3ECCF1ADE6F
:1015B00024975F939F81992311F4289635CF12F4D5
:1015C00028963DCF4F9342E48E81BD81AC818883C4
:1015D0009983AA83BB83FD01BC01AC81BD818E814F
:1015E0009F8181DF88819981AA81BB81DFDE62DEF4
:1015F0007A9546DE88819981AA81BB81AE27A87F32
:1016000021F4BF178607970729F04A9519F0DF01E3
:10161000CB01DDCF4F915F9128960895109639F058
:10162000A89580ED97E00197F1F71197C9F7089514
:00000001FF
